{
  "_format": "hh-sol-artifact-1",
  "contractName": "AuctionFactory",
  "sourceName": "contracts/AuctionFactory.sol",
  "abi": [
    {
      "anonymous": false,
      "inputs": [
        {
          "indexed": false,
          "internalType": "address",
          "name": "auctionAddress",
          "type": "address"
        },
        {
          "indexed": false,
          "internalType": "address",
          "name": "seller",
          "type": "address"
        }
      ],
      "name": "AuctionCreated",
      "type": "event"
    },
    {
      "inputs": [
        {
          "internalType": "uint256",
          "name": "",
          "type": "uint256"
        }
      ],
      "name": "auctions",
      "outputs": [
        {
          "internalType": "contract Auction",
          "name": "",
          "type": "address"
        }
      ],
      "stateMutability": "view",
      "type": "function"
    },
    {
      "inputs": [
        {
          "internalType": "uint256",
          "name": "_biddingTime",
          "type": "uint256"
        },
        {
          "internalType": "string",
          "name": "_itemName",
          "type": "string"
        },
        {
          "internalType": "string",
          "name": "_itemDescription",
          "type": "string"
        },
        {
          "internalType": "string",
          "name": "_itemImageURL",
          "type": "string"
        }
      ],
      "name": "createAuction",
      "outputs": [],
      "stateMutability": "nonpayable",
      "type": "function"
    },
    {
      "inputs": [],
      "name": "getAuctions",
      "outputs": [
        {
          "internalType": "contract Auction[]",
          "name": "",
          "type": "address[]"
        }
      ],
      "stateMutability": "view",
      "type": "function"
    }
  ],
  "bytecode": "0x608060405234801561001057600080fd5b50611db1806100206000396000f3fe60806040523480156200001157600080fd5b5060043610620000465760003560e01c80630ec66484146200004b578063571a26a0146200006b578063d7c0691914620000a1575b600080fd5b62000069600480360381019062000063919062000340565b620000c3565b005b62000089600480360381019062000083919062000314565b620001ad565b60405162000098919062000562565b60405180910390f35b620000ab620001ed565b604051620000ba91906200053e565b60405180910390f35b60008433858585604051620000d8906200027d565b620000e89594939291906200057f565b604051809103906000f08015801562000105573d6000803e3d6000fd5b5090506000819080600181540180825580915050600190039060005260206000200160009091909190916101000a81548173ffffffffffffffffffffffffffffffffffffffff021916908373ffffffffffffffffffffffffffffffffffffffff1602179055507f0bdb7849ed0b0249d0f995067a2ca77769f68ab4c654931e262676effeb395f281336040516200019e92919062000511565b60405180910390a15050505050565b60008181548110620001be57600080fd5b906000526020600020016000915054906101000a900473ffffffffffffffffffffffffffffffffffffffff1681565b606060008054806020026020016040519081016040528092919081815260200182805480156200027357602002820191906000526020600020905b8160009054906101000a900473ffffffffffffffffffffffffffffffffffffffff1673ffffffffffffffffffffffffffffffffffffffff168152602001906001019080831162000228575b5050505050905090565b61158780620007f583390190565b6000620002a26200029c846200061a565b620005f1565b905082815260208101848484011115620002bb57600080fd5b620002c88482856200071f565b509392505050565b600082601f830112620002e257600080fd5b8135620002f48482602086016200028b565b91505092915050565b6000813590506200030e81620007da565b92915050565b6000602082840312156200032757600080fd5b60006200033784828501620002fd565b91505092915050565b600080600080608085870312156200035757600080fd5b60006200036787828801620002fd565b945050602085013567ffffffffffffffff8111156200038557600080fd5b6200039387828801620002d0565b935050604085013567ffffffffffffffff811115620003b157600080fd5b620003bf87828801620002d0565b925050606085013567ffffffffffffffff811115620003dd57600080fd5b620003eb87828801620002d0565b91505092959194509250565b60006200040583836200049d565b60208301905092915050565b6200041c81620006b9565b82525050565b6200042d81620006a5565b82525050565b6000620004408262000660565b6200044c818562000683565b9350620004598362000650565b8060005b8381101562000490578151620004748882620003f7565b9750620004818362000676565b9250506001810190506200045d565b5085935050505092915050565b620004a881620006f7565b82525050565b620004b981620006f7565b82525050565b6000620004cc826200066b565b620004d8818562000694565b9350620004ea8185602086016200072e565b620004f581620007c9565b840191505092915050565b6200050b81620006ed565b82525050565b600060408201905062000528600083018562000422565b62000537602083018462000422565b9392505050565b600060208201905081810360008301526200055a818462000433565b905092915050565b6000602082019050620005796000830184620004ae565b92915050565b600060a08201905062000596600083018862000500565b620005a5602083018762000411565b8181036040830152620005b98186620004bf565b90508181036060830152620005cf8185620004bf565b90508181036080830152620005e58184620004bf565b90509695505050505050565b6000620005fd62000610565b90506200060b828262000764565b919050565b6000604051905090565b600067ffffffffffffffff8211156200063857620006376200079a565b5b6200064382620007c9565b9050602081019050919050565b6000819050602082019050919050565b600081519050919050565b600081519050919050565b6000602082019050919050565b600082825260208201905092915050565b600082825260208201905092915050565b6000620006b282620006cd565b9050919050565b6000620006c682620006cd565b9050919050565b600073ffffffffffffffffffffffffffffffffffffffff82169050919050565b6000819050919050565b600062000704826200070b565b9050919050565b60006200071882620006cd565b9050919050565b82818337600083830152505050565b60005b838110156200074e57808201518184015260208101905062000731565b838111156200075e576000848401525b50505050565b6200076f82620007c9565b810181811067ffffffffffffffff821117156200079157620007906200079a565b5b80604052505050565b7f4e487b7100000000000000000000000000000000000000000000000000000000600052604160045260246000fd5b6000601f19601f8301169050919050565b620007e581620006ed565b8114620007f157600080fd5b5056fe60806040523480156200001157600080fd5b506040516200158738038062001587833981810160405281019062000037919062000231565b836000806101000a81548173ffffffffffffffffffffffffffffffffffffffff021916908373ffffffffffffffffffffffffffffffffffffffff16021790555084426200008591906200035d565b6001819055508260069080519060200190620000a3929190620000e1565b508160079080519060200190620000bc929190620000e1565b508060089080519060200190620000d5929190620000e1565b5050505050506200056c565b828054620000ef906200042e565b90600052602060002090601f0160209004810192826200011357600085556200015f565b82601f106200012e57805160ff19168380011785556200015f565b828001600101855582156200015f579182015b828111156200015e57825182559160200191906001019062000141565b5b5090506200016e919062000172565b5090565b5b808211156200018d57600081600090555060010162000173565b5090565b6000620001a8620001a28462000327565b620002fe565b905082815260208101848484011115620001c157600080fd5b620001ce848285620003f8565b509392505050565b600081519050620001e78162000538565b92915050565b600082601f830112620001ff57600080fd5b81516200021184826020860162000191565b91505092915050565b6000815190506200022b8162000552565b92915050565b600080600080600060a086880312156200024a57600080fd5b60006200025a888289016200021a565b95505060206200026d88828901620001d6565b945050604086015167ffffffffffffffff8111156200028b57600080fd5b6200029988828901620001ed565b935050606086015167ffffffffffffffff811115620002b757600080fd5b620002c588828901620001ed565b925050608086015167ffffffffffffffff811115620002e357600080fd5b620002f188828901620001ed565b9150509295509295909350565b60006200030a6200031d565b905062000318828262000464565b919050565b6000604051905090565b600067ffffffffffffffff821115620003455762000344620004f8565b5b620003508262000527565b9050602081019050919050565b60006200036a82620003ee565b91506200037783620003ee565b9250827fffffffffffffffffffffffffffffffffffffffffffffffffffffffffffffffff03821115620003af57620003ae6200049a565b5b828201905092915050565b6000620003c782620003ce565b9050919050565b600073ffffffffffffffffffffffffffffffffffffffff82169050919050565b6000819050919050565b60005b8381101562000418578082015181840152602081019050620003fb565b8381111562000428576000848401525b50505050565b600060028204905060018216806200044757607f821691505b602082108114156200045e576200045d620004c9565b5b50919050565b6200046f8262000527565b810181811067ffffffffffffffff82111715620004915762000490620004f8565b5b80604052505050565b7f4e487b7100000000000000000000000000000000000000000000000000000000600052601160045260246000fd5b7f4e487b7100000000000000000000000000000000000000000000000000000000600052602260045260246000fd5b7f4e487b7100000000000000000000000000000000000000000000000000000000600052604160045260246000fd5b6000601f19601f8301169050919050565b6200054381620003ba565b81146200054f57600080fd5b50565b6200055d81620003ee565b81146200056957600080fd5b50565b61100b806200057c6000396000f3fe6080604052600436106100a75760003560e01c80633ccfd60b116100645780633ccfd60b1461018b57806340401fea146101b65780634b449cba146101e157806391f901571461020c5780639f36522614610237578063d57bde7914610262576100a7565b806308551a53146100ac57806312fa6feb146100d75780631998aeef1461010257806326b387bb1461010c5780632a24f46c14610149578063336ae86d14610160575b600080fd5b3480156100b857600080fd5b506100c161028d565b6040516100ce9190610bc1565b60405180910390f35b3480156100e357600080fd5b506100ec6102b1565b6040516100f99190610bdc565b60405180910390f35b61010a6102c4565b005b34801561011857600080fd5b50610133600480360381019061012e91906109fe565b61046a565b6040516101409190610cd9565b60405180910390f35b34801561015557600080fd5b5061015e610482565b005b34801561016c57600080fd5b50610175610676565b6040516101829190610bf7565b60405180910390f35b34801561019757600080fd5b506101a0610704565b6040516101ad9190610bdc565b60405180910390f35b3480156101c257600080fd5b506101cb61089b565b6040516101d89190610bf7565b60405180910390f35b3480156101ed57600080fd5b506101f6610929565b6040516102039190610cd9565b60405180910390f35b34801561021857600080fd5b5061022161092f565b60405161022e9190610ba6565b60405180910390f35b34801561024357600080fd5b5061024c610955565b6040516102599190610bf7565b60405180910390f35b34801561026e57600080fd5b506102776109e3565b6040516102849190610cd9565b60405180910390f35b60008054906101000a900473ffffffffffffffffffffffffffffffffffffffff1681565b600560009054906101000a900460ff1681565b600154421115610309576040517f08c379a000000000000000000000000000000000000000000000000000000000815260040161030090610c19565b60405180910390fd5b600354341161034d576040517f08c379a000000000000000000000000000000000000000000000000000000000815260040161034490610c39565b60405180910390fd5b6000600354146103d25760035460046000600260009054906101000a900473ffffffffffffffffffffffffffffffffffffffff1673ffffffffffffffffffffffffffffffffffffffff1673ffffffffffffffffffffffffffffffffffffffff16815260200190815260200160002060008282546103ca9190610d1b565b925050819055505b33600260006101000a81548173ffffffffffffffffffffffffffffffffffffffff021916908373ffffffffffffffffffffffffffffffffffffffff160217905550346003819055503373ffffffffffffffffffffffffffffffffffffffff167ff4757a49b326036464bec6fe419a4ae38c8a02ce3e68bf0809674f6aab8ad300346040516104609190610cd9565b60405180910390a2565b60046020528060005260406000206000915090505481565b6001544210156104c7576040517f08c379a00000000000000000000000000000000000000000000000000000000081526004016104be90610c59565b60405180910390fd5b600560009054906101000a900460ff1615610517576040517f08c379a000000000000000000000000000000000000000000000000000000000815260040161050e90610c79565b60405180910390fd5b6001600560006101000a81548160ff021916908315150217905550600260009054906101000a900473ffffffffffffffffffffffffffffffffffffffff1673ffffffffffffffffffffffffffffffffffffffff167fdaec4582d5d9595688c8c98545fdd1c696d41c6aeaeb636737e84ed2f5c00eda60035460405161059c9190610cd9565b60405180910390a260008060009054906101000a900473ffffffffffffffffffffffffffffffffffffffff1673ffffffffffffffffffffffffffffffffffffffff166003546040516105ed90610b91565b60006040518083038185875af1925050503d806000811461062a576040519150601f19603f3d011682016040523d82523d6000602084013e61062f565b606091505b5050905080610673576040517f08c379a000000000000000000000000000000000000000000000000000000000815260040161066a90610c99565b60405180910390fd5b50565b6008805461068390610dfe565b80601f01602080910402602001604051908101604052809291908181526020018280546106af90610dfe565b80156106fc5780601f106106d1576101008083540402835291602001916106fc565b820191906000526020600020905b8154815290600101906020018083116106df57829003601f168201915b505050505081565b600080600460003373ffffffffffffffffffffffffffffffffffffffff1673ffffffffffffffffffffffffffffffffffffffff1681526020019081526020016000205490506000811161078c576040517f08c379a000000000000000000000000000000000000000000000000000000000815260040161078390610cb9565b60405180910390fd5b6000600460003373ffffffffffffffffffffffffffffffffffffffff1673ffffffffffffffffffffffffffffffffffffffff1681526020019081526020016000208190555060003373ffffffffffffffffffffffffffffffffffffffff16826040516107f790610b91565b60006040518083038185875af1925050503d8060008114610834576040519150601f19603f3d011682016040523d82523d6000602084013e610839565b606091505b50509050806108915781600460003373ffffffffffffffffffffffffffffffffffffffff1673ffffffffffffffffffffffffffffffffffffffff16815260200190815260200160002081905550600092505050610898565b6001925050505b90565b600680546108a890610dfe565b80601f01602080910402602001604051908101604052809291908181526020018280546108d490610dfe565b80156109215780601f106108f657610100808354040283529160200191610921565b820191906000526020600020905b81548152906001019060200180831161090457829003601f168201915b505050505081565b60015481565b600260009054906101000a900473ffffffffffffffffffffffffffffffffffffffff1681565b6007805461096290610dfe565b80601f016020809104026020016040519081016040528092919081815260200182805461098e90610dfe565b80156109db5780601f106109b0576101008083540402835291602001916109db565b820191906000526020600020905b8154815290600101906020018083116109be57829003601f168201915b505050505081565b60035481565b6000813590506109f881610fbe565b92915050565b600060208284031215610a1057600080fd5b6000610a1e848285016109e9565b91505092915050565b610a3081610d83565b82525050565b610a3f81610d71565b82525050565b610a4e81610d95565b82525050565b6000610a5f82610cf4565b610a698185610d0a565b9350610a79818560208601610dcb565b610a8281610e8e565b840191505092915050565b6000610a9a601683610d0a565b9150610aa582610e9f565b602082019050919050565b6000610abd601e83610d0a565b9150610ac882610ec8565b602082019050919050565b6000610ae0601683610d0a565b9150610aeb82610ef1565b602082019050919050565b6000610b03602383610d0a565b9150610b0e82610f1a565b604082019050919050565b6000610b26601a83610d0a565b9150610b3182610f69565b602082019050919050565b6000610b49601583610d0a565b9150610b5482610f92565b602082019050919050565b6000610b6c600083610cff565b9150610b7782610fbb565b600082019050919050565b610b8b81610dc1565b82525050565b6000610b9c82610b5f565b9150819050919050565b6000602082019050610bbb6000830184610a36565b92915050565b6000602082019050610bd66000830184610a27565b92915050565b6000602082019050610bf16000830184610a45565b92915050565b60006020820190508181036000830152610c118184610a54565b905092915050565b60006020820190508181036000830152610c3281610a8d565b9050919050565b60006020820190508181036000830152610c5281610ab0565b9050919050565b60006020820190508181036000830152610c7281610ad3565b9050919050565b60006020820190508181036000830152610c9281610af6565b9050919050565b60006020820190508181036000830152610cb281610b19565b9050919050565b60006020820190508181036000830152610cd281610b3c565b9050919050565b6000602082019050610cee6000830184610b82565b92915050565b600081519050919050565b600081905092915050565b600082825260208201905092915050565b6000610d2682610dc1565b9150610d3183610dc1565b9250827fffffffffffffffffffffffffffffffffffffffffffffffffffffffffffffffff03821115610d6657610d65610e30565b5b828201905092915050565b6000610d7c82610da1565b9050919050565b6000610d8e82610da1565b9050919050565b60008115159050919050565b600073ffffffffffffffffffffffffffffffffffffffff82169050919050565b6000819050919050565b60005b83811015610de9578082015181840152602081019050610dce565b83811115610df8576000848401525b50505050565b60006002820490506001821680610e1657607f821691505b60208210811415610e2a57610e29610e5f565b5b50919050565b7f4e487b7100000000000000000000000000000000000000000000000000000000600052601160045260246000fd5b7f4e487b7100000000000000000000000000000000000000000000000000000000600052602260045260246000fd5b6000601f19601f8301169050919050565b7f41756374696f6e20616c726561647920656e6465642e00000000000000000000600082015250565b7f546865726520616c7265616479206973206120686967686572206269642e0000600082015250565b7f41756374696f6e206e6f742079657420656e6465642e00000000000000000000600082015250565b7f61756374696f6e456e642068617320616c7265616479206265656e2063616c6c60008201527f65642e0000000000000000000000000000000000000000000000000000000000602082015250565b7f5472616e7366657220746f2073656c6c6572206661696c65642e000000000000600082015250565b7f4e6f2066756e647320746f2077697468647261772e0000000000000000000000600082015250565b50565b610fc781610d71565b8114610fd257600080fd5b5056fea2646970667358221220fcc46b43a38b21bdcc99c97d3ee171a7f1c522c95331a02acf8e04557945e15b64736f6c63430008010033a26469706673582212207a7e46c99ba1576382dbf179bfcc02306577ff44898a546e0007df211f708e2d64736f6c63430008010033",
  "linkReferences": {},
  "deployedLinkReferences": {}
}