{
  "_format": "hh-sol-artifact-1",
  "contractName": "Auction",
  "sourceName": "contracts/Auction.sol",
  "abi": [
    {
      "inputs": [
        {
          "internalType": "uint256",
          "name": "_biddingTime",
          "type": "uint256"
        },
        {
          "internalType": "address payable",
          "name": "_seller",
          "type": "address"
        },
        {
          "internalType": "string",
          "name": "_itemName",
          "type": "string"
        },
        {
          "internalType": "string",
          "name": "_itemDescription",
          "type": "string"
        }
      ],
      "stateMutability": "nonpayable",
      "type": "constructor"
    },
    {
      "anonymous": false,
      "inputs": [
        {
          "indexed": false,
          "internalType": "address",
          "name": "winner",
          "type": "address"
        },
        {
          "indexed": false,
          "internalType": "uint256",
          "name": "amount",
          "type": "uint256"
        }
      ],
      "name": "AuctionEnded",
      "type": "event"
    },
    {
      "anonymous": false,
      "inputs": [
        {
          "indexed": false,
          "internalType": "address",
          "name": "bidder",
          "type": "address"
        },
        {
          "indexed": false,
          "internalType": "uint256",
          "name": "amount",
          "type": "uint256"
        }
      ],
      "name": "HighestBidIncreased",
      "type": "event"
    },
    {
      "inputs": [],
      "name": "auctionEnd",
      "outputs": [],
      "stateMutability": "nonpayable",
      "type": "function"
    },
    {
      "inputs": [],
      "name": "auctionEndTime",
      "outputs": [
        {
          "internalType": "uint256",
          "name": "",
          "type": "uint256"
        }
      ],
      "stateMutability": "view",
      "type": "function"
    },
    {
      "inputs": [],
      "name": "bid",
      "outputs": [],
      "stateMutability": "payable",
      "type": "function"
    },
    {
      "inputs": [],
      "name": "ended",
      "outputs": [
        {
          "internalType": "bool",
          "name": "",
          "type": "bool"
        }
      ],
      "stateMutability": "view",
      "type": "function"
    },
    {
      "inputs": [],
      "name": "highestBid",
      "outputs": [
        {
          "internalType": "uint256",
          "name": "",
          "type": "uint256"
        }
      ],
      "stateMutability": "view",
      "type": "function"
    },
    {
      "inputs": [],
      "name": "highestBidder",
      "outputs": [
        {
          "internalType": "address",
          "name": "",
          "type": "address"
        }
      ],
      "stateMutability": "view",
      "type": "function"
    },
    {
      "inputs": [],
      "name": "itemDescription",
      "outputs": [
        {
          "internalType": "string",
          "name": "",
          "type": "string"
        }
      ],
      "stateMutability": "view",
      "type": "function"
    },
    {
      "inputs": [],
      "name": "itemName",
      "outputs": [
        {
          "internalType": "string",
          "name": "",
          "type": "string"
        }
      ],
      "stateMutability": "view",
      "type": "function"
    },
    {
      "inputs": [
        {
          "internalType": "address",
          "name": "",
          "type": "address"
        }
      ],
      "name": "pendingReturns",
      "outputs": [
        {
          "internalType": "uint256",
          "name": "",
          "type": "uint256"
        }
      ],
      "stateMutability": "view",
      "type": "function"
    },
    {
      "inputs": [],
      "name": "seller",
      "outputs": [
        {
          "internalType": "address payable",
          "name": "",
          "type": "address"
        }
      ],
      "stateMutability": "view",
      "type": "function"
    },
    {
      "inputs": [],
      "name": "withdraw",
      "outputs": [
        {
          "internalType": "bool",
          "name": "",
          "type": "bool"
        }
      ],
      "stateMutability": "nonpayable",
      "type": "function"
    }
  ],
  "bytecode": "0x608060405234801561001057600080fd5b506040516113db3803806113db833981810160405281019061003291906102b6565b826000806101000a81548173ffffffffffffffffffffffffffffffffffffffff021916908373ffffffffffffffffffffffffffffffffffffffff160217905550834261007e9190610384565b600181905550816006908161009391906105cf565b5080600790816100a391906105cf565b50505050506106a1565b6000604051905090565b600080fd5b600080fd5b6000819050919050565b6100d4816100c1565b81146100df57600080fd5b50565b6000815190506100f1816100cb565b92915050565b600073ffffffffffffffffffffffffffffffffffffffff82169050919050565b6000610122826100f7565b9050919050565b61013281610117565b811461013d57600080fd5b50565b60008151905061014f81610129565b92915050565b600080fd5b600080fd5b6000601f19601f8301169050919050565b7f4e487b7100000000000000000000000000000000000000000000000000000000600052604160045260246000fd5b6101a88261015f565b810181811067ffffffffffffffff821117156101c7576101c6610170565b5b80604052505050565b60006101da6100ad565b90506101e6828261019f565b919050565b600067ffffffffffffffff82111561020657610205610170565b5b61020f8261015f565b9050602081019050919050565b60005b8381101561023a57808201518184015260208101905061021f565b60008484015250505050565b6000610259610254846101eb565b6101d0565b9050828152602081018484840111156102755761027461015a565b5b61028084828561021c565b509392505050565b600082601f83011261029d5761029c610155565b5b81516102ad848260208601610246565b91505092915050565b600080600080608085870312156102d0576102cf6100b7565b5b60006102de878288016100e2565b94505060206102ef87828801610140565b935050604085015167ffffffffffffffff8111156103105761030f6100bc565b5b61031c87828801610288565b925050606085015167ffffffffffffffff81111561033d5761033c6100bc565b5b61034987828801610288565b91505092959194509250565b7f4e487b7100000000000000000000000000000000000000000000000000000000600052601160045260246000fd5b600061038f826100c1565b915061039a836100c1565b92508282019050808211156103b2576103b1610355565b5b92915050565b600081519050919050565b7f4e487b7100000000000000000000000000000000000000000000000000000000600052602260045260246000fd5b6000600282049050600182168061040a57607f821691505b60208210810361041d5761041c6103c3565b5b50919050565b60008190508160005260206000209050919050565b60006020601f8301049050919050565b600082821b905092915050565b6000600883026104857fffffffffffffffffffffffffffffffffffffffffffffffffffffffffffffffff82610448565b61048f8683610448565b95508019841693508086168417925050509392505050565b6000819050919050565b60006104cc6104c76104c2846100c1565b6104a7565b6100c1565b9050919050565b6000819050919050565b6104e6836104b1565b6104fa6104f2826104d3565b848454610455565b825550505050565b600090565b61050f610502565b61051a8184846104dd565b505050565b5b8181101561053e57610533600082610507565b600181019050610520565b5050565b601f8211156105835761055481610423565b61055d84610438565b8101602085101561056c578190505b61058061057885610438565b83018261051f565b50505b505050565b600082821c905092915050565b60006105a660001984600802610588565b1980831691505092915050565b60006105bf8383610595565b9150826002028217905092915050565b6105d8826103b8565b67ffffffffffffffff8111156105f1576105f0610170565b5b6105fb82546103f2565b610606828285610542565b600060209050601f8311600181146106395760008415610627578287015190505b61063185826105b3565b865550610699565b601f19841661064786610423565b60005b8281101561066f5784890151825560018201915060208501945060208101905061064a565b8683101561068c5784890151610688601f891682610595565b8355505b6001600288020188555050505b505050505050565b610d2b806106b06000396000f3fe60806040526004361061009c5760003560e01c80633ccfd60b116100645780633ccfd60b1461015557806340401fea146101805780634b449cba146101ab57806391f90157146101d65780639f36522614610201578063d57bde791461022c5761009c565b806308551a53146100a157806312fa6feb146100cc5780631998aeef146100f757806326b387bb146101015780632a24f46c1461013e575b600080fd5b3480156100ad57600080fd5b506100b6610257565b6040516100c39190610862565b60405180910390f35b3480156100d857600080fd5b506100e161027b565b6040516100ee9190610898565b60405180910390f35b6100ff61028e565b005b34801561010d57600080fd5b50610128600480360381019061012391906108f6565b61041f565b604051610135919061093c565b60405180910390f35b34801561014a57600080fd5b50610153610437565b005b34801561016157600080fd5b5061016a6105af565b6040516101779190610898565b60405180910390f35b34801561018c57600080fd5b506101956106d3565b6040516101a291906109e7565b60405180910390f35b3480156101b757600080fd5b506101c0610761565b6040516101cd919061093c565b60405180910390f35b3480156101e257600080fd5b506101eb610767565b6040516101f89190610a18565b60405180910390f35b34801561020d57600080fd5b5061021661078d565b60405161022391906109e7565b60405180910390f35b34801561023857600080fd5b5061024161081b565b60405161024e919061093c565b60405180910390f35b60008054906101000a900473ffffffffffffffffffffffffffffffffffffffff1681565b600560009054906101000a900460ff1681565b6001544211156102d3576040517f08c379a00000000000000000000000000000000000000000000000000000000081526004016102ca90610a7f565b60405180910390fd5b6003543411610317576040517f08c379a000000000000000000000000000000000000000000000000000000000815260040161030e90610aeb565b60405180910390fd5b60006003541461039c5760035460046000600260009054906101000a900473ffffffffffffffffffffffffffffffffffffffff1673ffffffffffffffffffffffffffffffffffffffff1673ffffffffffffffffffffffffffffffffffffffff16815260200190815260200160002060008282546103949190610b3a565b925050819055505b33600260006101000a81548173ffffffffffffffffffffffffffffffffffffffff021916908373ffffffffffffffffffffffffffffffffffffffff160217905550346003819055507ff4757a49b326036464bec6fe419a4ae38c8a02ce3e68bf0809674f6aab8ad3003334604051610415929190610b6e565b60405180910390a1565b60046020528060005260406000206000915090505481565b600560009054906101000a900460ff1615610487576040517f08c379a000000000000000000000000000000000000000000000000000000000815260040161047e90610c09565b60405180910390fd5b6001544210156104cc576040517f08c379a00000000000000000000000000000000000000000000000000000000081526004016104c390610c75565b60405180910390fd5b6001600560006101000a81548160ff0219169083151502179055507fdaec4582d5d9595688c8c98545fdd1c696d41c6aeaeb636737e84ed2f5c00eda600260009054906101000a900473ffffffffffffffffffffffffffffffffffffffff1660035460405161053c929190610b6e565b60405180910390a160008054906101000a900473ffffffffffffffffffffffffffffffffffffffff1673ffffffffffffffffffffffffffffffffffffffff166108fc6003549081150290604051600060405180830381858888f193505050501580156105ac573d6000803e3d6000fd5b50565b600080600460003373ffffffffffffffffffffffffffffffffffffffff1673ffffffffffffffffffffffffffffffffffffffff16815260200190815260200160002054905060008111156106ca576000600460003373ffffffffffffffffffffffffffffffffffffffff1673ffffffffffffffffffffffffffffffffffffffff168152602001908152602001600020819055503373ffffffffffffffffffffffffffffffffffffffff166108fc829081150290604051600060405180830381858888f193505050506106c95780600460003373ffffffffffffffffffffffffffffffffffffffff1673ffffffffffffffffffffffffffffffffffffffff1681526020019081526020016000208190555060009150506106d0565b5b60019150505b90565b600680546106e090610cc4565b80601f016020809104026020016040519081016040528092919081815260200182805461070c90610cc4565b80156107595780601f1061072e57610100808354040283529160200191610759565b820191906000526020600020905b81548152906001019060200180831161073c57829003601f168201915b505050505081565b60015481565b600260009054906101000a900473ffffffffffffffffffffffffffffffffffffffff1681565b6007805461079a90610cc4565b80601f01602080910402602001604051908101604052809291908181526020018280546107c690610cc4565b80156108135780601f106107e857610100808354040283529160200191610813565b820191906000526020600020905b8154815290600101906020018083116107f657829003601f168201915b505050505081565b60035481565b600073ffffffffffffffffffffffffffffffffffffffff82169050919050565b600061084c82610821565b9050919050565b61085c81610841565b82525050565b60006020820190506108776000830184610853565b92915050565b60008115159050919050565b6108928161087d565b82525050565b60006020820190506108ad6000830184610889565b92915050565b600080fd5b60006108c382610821565b9050919050565b6108d3816108b8565b81146108de57600080fd5b50565b6000813590506108f0816108ca565b92915050565b60006020828403121561090c5761090b6108b3565b5b600061091a848285016108e1565b91505092915050565b6000819050919050565b61093681610923565b82525050565b6000602082019050610951600083018461092d565b92915050565b600081519050919050565b600082825260208201905092915050565b60005b83811015610991578082015181840152602081019050610976565b60008484015250505050565b6000601f19601f8301169050919050565b60006109b982610957565b6109c38185610962565b93506109d3818560208601610973565b6109dc8161099d565b840191505092915050565b60006020820190508181036000830152610a0181846109ae565b905092915050565b610a12816108b8565b82525050565b6000602082019050610a2d6000830184610a09565b92915050565b7f41756374696f6e20616c726561647920656e6465642e00000000000000000000600082015250565b6000610a69601683610962565b9150610a7482610a33565b602082019050919050565b60006020820190508181036000830152610a9881610a5c565b9050919050565b7f546865726520616c7265616479206973206120686967686572206269642e0000600082015250565b6000610ad5601e83610962565b9150610ae082610a9f565b602082019050919050565b60006020820190508181036000830152610b0481610ac8565b9050919050565b7f4e487b7100000000000000000000000000000000000000000000000000000000600052601160045260246000fd5b6000610b4582610923565b9150610b5083610923565b9250828201905080821115610b6857610b67610b0b565b5b92915050565b6000604082019050610b836000830185610a09565b610b90602083018461092d565b9392505050565b7f61756374696f6e456e642068617320616c7265616479206265656e2063616c6c60008201527f65642e0000000000000000000000000000000000000000000000000000000000602082015250565b6000610bf3602383610962565b9150610bfe82610b97565b604082019050919050565b60006020820190508181036000830152610c2281610be6565b9050919050565b7f41756374696f6e206e6f742079657420656e6465642e00000000000000000000600082015250565b6000610c5f601683610962565b9150610c6a82610c29565b602082019050919050565b60006020820190508181036000830152610c8e81610c52565b9050919050565b7f4e487b7100000000000000000000000000000000000000000000000000000000600052602260045260246000fd5b60006002820490506001821680610cdc57607f821691505b602082108103610cef57610cee610c95565b5b5091905056fea2646970667358221220975f495e6160e48b2c24ddc73a84b94996bc771e1114b694065c9e3d8ef6e14064736f6c634300081b0033",
  "linkReferences": {},
  "deployedLinkReferences": {}
}