{
  "_format": "hh-sol-artifact-1",
  "contractName": "Auction",
  "sourceName": "contracts/Auction.sol",
  "abi": [
    {
      "inputs": [
        {
          "internalType": "uint256",
          "name": "_biddingTime",
          "type": "uint256"
        },
        {
          "internalType": "address payable",
          "name": "_seller",
          "type": "address"
        },
        {
          "internalType": "string",
          "name": "_itemName",
          "type": "string"
        },
        {
          "internalType": "string",
          "name": "_itemDescription",
          "type": "string"
        },
        {
          "internalType": "string",
          "name": "_itemImageURL",
          "type": "string"
        }
      ],
      "stateMutability": "nonpayable",
      "type": "constructor"
    },
    {
      "anonymous": false,
      "inputs": [
        {
          "indexed": false,
          "internalType": "address",
          "name": "caller",
          "type": "address"
        },
        {
          "indexed": false,
          "internalType": "uint256",
          "name": "timestamp",
          "type": "uint256"
        }
      ],
      "name": "AuctionEndCalled",
      "type": "event"
    },
    {
      "anonymous": false,
      "inputs": [
        {
          "indexed": true,
          "internalType": "address",
          "name": "winner",
          "type": "address"
        },
        {
          "indexed": false,
          "internalType": "uint256",
          "name": "amount",
          "type": "uint256"
        }
      ],
      "name": "AuctionEnded",
      "type": "event"
    },
    {
      "anonymous": false,
      "inputs": [
        {
          "indexed": false,
          "internalType": "uint256",
          "name": "balanceBefore",
          "type": "uint256"
        },
        {
          "indexed": false,
          "internalType": "uint256",
          "name": "balanceAfter",
          "type": "uint256"
        }
      ],
      "name": "BalanceLog",
      "type": "event"
    },
    {
      "anonymous": false,
      "inputs": [
        {
          "indexed": true,
          "internalType": "address",
          "name": "bidder",
          "type": "address"
        },
        {
          "indexed": false,
          "internalType": "uint256",
          "name": "amount",
          "type": "uint256"
        }
      ],
      "name": "HighestBidIncreased",
      "type": "event"
    },
    {
      "anonymous": false,
      "inputs": [
        {
          "indexed": false,
          "internalType": "address",
          "name": "recipient",
          "type": "address"
        },
        {
          "indexed": false,
          "internalType": "uint256",
          "name": "amount",
          "type": "uint256"
        },
        {
          "indexed": false,
          "internalType": "bool",
          "name": "success",
          "type": "bool"
        }
      ],
      "name": "TransferAttempt",
      "type": "event"
    },
    {
      "anonymous": false,
      "inputs": [
        {
          "indexed": true,
          "internalType": "address",
          "name": "seller",
          "type": "address"
        },
        {
          "indexed": false,
          "internalType": "uint256",
          "name": "amount",
          "type": "uint256"
        }
      ],
      "name": "TransferFailed",
      "type": "event"
    },
    {
      "inputs": [],
      "name": "auctionEnd",
      "outputs": [],
      "stateMutability": "nonpayable",
      "type": "function"
    },
    {
      "inputs": [],
      "name": "auctionEndTime",
      "outputs": [
        {
          "internalType": "uint256",
          "name": "",
          "type": "uint256"
        }
      ],
      "stateMutability": "view",
      "type": "function"
    },
    {
      "inputs": [],
      "name": "bid",
      "outputs": [],
      "stateMutability": "payable",
      "type": "function"
    },
    {
      "inputs": [],
      "name": "ended",
      "outputs": [
        {
          "internalType": "bool",
          "name": "",
          "type": "bool"
        }
      ],
      "stateMutability": "view",
      "type": "function"
    },
    {
      "inputs": [],
      "name": "highestBid",
      "outputs": [
        {
          "internalType": "uint256",
          "name": "",
          "type": "uint256"
        }
      ],
      "stateMutability": "view",
      "type": "function"
    },
    {
      "inputs": [],
      "name": "highestBidder",
      "outputs": [
        {
          "internalType": "address",
          "name": "",
          "type": "address"
        }
      ],
      "stateMutability": "view",
      "type": "function"
    },
    {
      "inputs": [],
      "name": "itemDescription",
      "outputs": [
        {
          "internalType": "string",
          "name": "",
          "type": "string"
        }
      ],
      "stateMutability": "view",
      "type": "function"
    },
    {
      "inputs": [],
      "name": "itemImageURL",
      "outputs": [
        {
          "internalType": "string",
          "name": "",
          "type": "string"
        }
      ],
      "stateMutability": "view",
      "type": "function"
    },
    {
      "inputs": [],
      "name": "itemName",
      "outputs": [
        {
          "internalType": "string",
          "name": "",
          "type": "string"
        }
      ],
      "stateMutability": "view",
      "type": "function"
    },
    {
      "inputs": [
        {
          "internalType": "address",
          "name": "",
          "type": "address"
        }
      ],
      "name": "pendingReturns",
      "outputs": [
        {
          "internalType": "uint256",
          "name": "",
          "type": "uint256"
        }
      ],
      "stateMutability": "view",
      "type": "function"
    },
    {
      "inputs": [],
      "name": "seller",
      "outputs": [
        {
          "internalType": "address payable",
          "name": "",
          "type": "address"
        }
      ],
      "stateMutability": "view",
      "type": "function"
    },
    {
      "inputs": [],
      "name": "withdraw",
      "outputs": [
        {
          "internalType": "bool",
          "name": "",
          "type": "bool"
        }
      ],
      "stateMutability": "nonpayable",
      "type": "function"
    }
  ],
  "bytecode": "0x60806040523480156200001157600080fd5b50604051620016cd380380620016cd833981810160405281019062000037919062000231565b836000806101000a81548173ffffffffffffffffffffffffffffffffffffffff021916908373ffffffffffffffffffffffffffffffffffffffff16021790555084426200008591906200035d565b6001819055508260069080519060200190620000a3929190620000e1565b508160079080519060200190620000bc929190620000e1565b508060089080519060200190620000d5929190620000e1565b5050505050506200056c565b828054620000ef906200042e565b90600052602060002090601f0160209004810192826200011357600085556200015f565b82601f106200012e57805160ff19168380011785556200015f565b828001600101855582156200015f579182015b828111156200015e57825182559160200191906001019062000141565b5b5090506200016e919062000172565b5090565b5b808211156200018d57600081600090555060010162000173565b5090565b6000620001a8620001a28462000327565b620002fe565b905082815260208101848484011115620001c157600080fd5b620001ce848285620003f8565b509392505050565b600081519050620001e78162000538565b92915050565b600082601f830112620001ff57600080fd5b81516200021184826020860162000191565b91505092915050565b6000815190506200022b8162000552565b92915050565b600080600080600060a086880312156200024a57600080fd5b60006200025a888289016200021a565b95505060206200026d88828901620001d6565b945050604086015167ffffffffffffffff8111156200028b57600080fd5b6200029988828901620001ed565b935050606086015167ffffffffffffffff811115620002b757600080fd5b620002c588828901620001ed565b925050608086015167ffffffffffffffff811115620002e357600080fd5b620002f188828901620001ed565b9150509295509295909350565b60006200030a6200031d565b905062000318828262000464565b919050565b6000604051905090565b600067ffffffffffffffff821115620003455762000344620004f8565b5b620003508262000527565b9050602081019050919050565b60006200036a82620003ee565b91506200037783620003ee565b9250827fffffffffffffffffffffffffffffffffffffffffffffffffffffffffffffffff03821115620003af57620003ae6200049a565b5b828201905092915050565b6000620003c782620003ce565b9050919050565b600073ffffffffffffffffffffffffffffffffffffffff82169050919050565b6000819050919050565b60005b8381101562000418578082015181840152602081019050620003fb565b8381111562000428576000848401525b50505050565b600060028204905060018216806200044757607f821691505b602082108114156200045e576200045d620004c9565b5b50919050565b6200046f8262000527565b810181811067ffffffffffffffff82111715620004915762000490620004f8565b5b80604052505050565b7f4e487b7100000000000000000000000000000000000000000000000000000000600052601160045260246000fd5b7f4e487b7100000000000000000000000000000000000000000000000000000000600052602260045260246000fd5b7f4e487b7100000000000000000000000000000000000000000000000000000000600052604160045260246000fd5b6000601f19601f8301169050919050565b6200054381620003ba565b81146200054f57600080fd5b50565b6200055d81620003ee565b81146200056957600080fd5b50565b611151806200057c6000396000f3fe6080604052600436106100a75760003560e01c80633ccfd60b116100645780633ccfd60b1461018b57806340401fea146101b65780634b449cba146101e157806391f901571461020c5780639f36522614610237578063d57bde7914610262576100a7565b806308551a53146100ac57806312fa6feb146100d75780631998aeef1461010257806326b387bb1461010c5780632a24f46c14610149578063336ae86d14610160575b600080fd5b3480156100b857600080fd5b506100c161028d565b6040516100ce9190610cb5565b60405180910390f35b3480156100e357600080fd5b506100ec6102b1565b6040516100f99190610cf9565b60405180910390f35b61010a6102c4565b005b34801561011857600080fd5b50610133600480360381019061012e9190610af2565b61046a565b6040516101409190610df6565b60405180910390f35b34801561015557600080fd5b5061015e610482565b005b34801561016c57600080fd5b5061017561076a565b6040516101829190610d14565b60405180910390f35b34801561019757600080fd5b506101a06107f8565b6040516101ad9190610cf9565b60405180910390f35b3480156101c257600080fd5b506101cb61098f565b6040516101d89190610d14565b60405180910390f35b3480156101ed57600080fd5b506101f6610a1d565b6040516102039190610df6565b60405180910390f35b34801561021857600080fd5b50610221610a23565b60405161022e9190610c9a565b60405180910390f35b34801561024357600080fd5b5061024c610a49565b6040516102599190610d14565b60405180910390f35b34801561026e57600080fd5b50610277610ad7565b6040516102849190610df6565b60405180910390f35b60008054906101000a900473ffffffffffffffffffffffffffffffffffffffff1681565b600560009054906101000a900460ff1681565b600154421115610309576040517f08c379a000000000000000000000000000000000000000000000000000000000815260040161030090610d36565b60405180910390fd5b600354341161034d576040517f08c379a000000000000000000000000000000000000000000000000000000000815260040161034490610d56565b60405180910390fd5b6000600354146103d25760035460046000600260009054906101000a900473ffffffffffffffffffffffffffffffffffffffff1673ffffffffffffffffffffffffffffffffffffffff1673ffffffffffffffffffffffffffffffffffffffff16815260200190815260200160002060008282546103ca9190610e61565b925050819055505b33600260006101000a81548173ffffffffffffffffffffffffffffffffffffffff021916908373ffffffffffffffffffffffffffffffffffffffff160217905550346003819055503373ffffffffffffffffffffffffffffffffffffffff167ff4757a49b326036464bec6fe419a4ae38c8a02ce3e68bf0809674f6aab8ad300346040516104609190610df6565b60405180910390a2565b60046020528060005260406000206000915090505481565b6001544210156104c7576040517f08c379a00000000000000000000000000000000000000000000000000000000081526004016104be90610d76565b60405180910390fd5b600560009054906101000a900460ff1615610517576040517f08c379a000000000000000000000000000000000000000000000000000000000815260040161050e90610d96565b60405180910390fd5b6001600560006101000a81548160ff021916908315150217905550600260009054906101000a900473ffffffffffffffffffffffffffffffffffffffff1673ffffffffffffffffffffffffffffffffffffffff167fdaec4582d5d9595688c8c98545fdd1c696d41c6aeaeb636737e84ed2f5c00eda60035460405161059c9190610df6565b60405180910390a27fdb63de3b389a22dc3e63a33719d81e9a08278bf8a1cf423b87136849c9642ee933426040516105d5929190610cd0565b60405180910390a1600047905060008060009054906101000a900473ffffffffffffffffffffffffffffffffffffffff1673ffffffffffffffffffffffffffffffffffffffff1660035460405161062b90610c85565b60006040518083038185875af1925050503d8060008114610668576040519150601f19603f3d011682016040523d82523d6000602084013e61066d565b606091505b50509050806106b1576040517f08c379a00000000000000000000000000000000000000000000000000000000081526004016106a890610db6565b60405180910390fd5b806107275760008054906101000a900473ffffffffffffffffffffffffffffffffffffffff1673ffffffffffffffffffffffffffffffffffffffff167f1c43b9761b3fba5321ca8212bfc231945f668ccc0c446f333999eea9ce8fda8160035460405161071e9190610df6565b60405180910390a25b60004790507f696cbf7f16f98b5e61a373cda758199e5f24296f8825affdfa9810752833b098838260405161075d929190610e11565b60405180910390a1505050565b6008805461077790610f44565b80601f01602080910402602001604051908101604052809291908181526020018280546107a390610f44565b80156107f05780601f106107c5576101008083540402835291602001916107f0565b820191906000526020600020905b8154815290600101906020018083116107d357829003601f168201915b505050505081565b600080600460003373ffffffffffffffffffffffffffffffffffffffff1673ffffffffffffffffffffffffffffffffffffffff16815260200190815260200160002054905060008111610880576040517f08c379a000000000000000000000000000000000000000000000000000000000815260040161087790610dd6565b60405180910390fd5b6000600460003373ffffffffffffffffffffffffffffffffffffffff1673ffffffffffffffffffffffffffffffffffffffff1681526020019081526020016000208190555060003373ffffffffffffffffffffffffffffffffffffffff16826040516108eb90610c85565b60006040518083038185875af1925050503d8060008114610928576040519150601f19603f3d011682016040523d82523d6000602084013e61092d565b606091505b50509050806109855781600460003373ffffffffffffffffffffffffffffffffffffffff1673ffffffffffffffffffffffffffffffffffffffff1681526020019081526020016000208190555060009250505061098c565b6001925050505b90565b6006805461099c90610f44565b80601f01602080910402602001604051908101604052809291908181526020018280546109c890610f44565b8015610a155780601f106109ea57610100808354040283529160200191610a15565b820191906000526020600020905b8154815290600101906020018083116109f857829003601f168201915b505050505081565b60015481565b600260009054906101000a900473ffffffffffffffffffffffffffffffffffffffff1681565b60078054610a5690610f44565b80601f0160208091040260200160405190810160405280929190818152602001828054610a8290610f44565b8015610acf5780601f10610aa457610100808354040283529160200191610acf565b820191906000526020600020905b815481529060010190602001808311610ab257829003601f168201915b505050505081565b60035481565b600081359050610aec81611104565b92915050565b600060208284031215610b0457600080fd5b6000610b1284828501610add565b91505092915050565b610b2481610ec9565b82525050565b610b3381610eb7565b82525050565b610b4281610edb565b82525050565b6000610b5382610e3a565b610b5d8185610e50565b9350610b6d818560208601610f11565b610b7681610fd4565b840191505092915050565b6000610b8e601683610e50565b9150610b9982610fe5565b602082019050919050565b6000610bb1601e83610e50565b9150610bbc8261100e565b602082019050919050565b6000610bd4601683610e50565b9150610bdf82611037565b602082019050919050565b6000610bf7602383610e50565b9150610c0282611060565b604082019050919050565b6000610c1a601a83610e50565b9150610c25826110af565b602082019050919050565b6000610c3d601583610e50565b9150610c48826110d8565b602082019050919050565b6000610c60600083610e45565b9150610c6b82611101565b600082019050919050565b610c7f81610f07565b82525050565b6000610c9082610c53565b9150819050919050565b6000602082019050610caf6000830184610b2a565b92915050565b6000602082019050610cca6000830184610b1b565b92915050565b6000604082019050610ce56000830185610b2a565b610cf26020830184610c76565b9392505050565b6000602082019050610d0e6000830184610b39565b92915050565b60006020820190508181036000830152610d2e8184610b48565b905092915050565b60006020820190508181036000830152610d4f81610b81565b9050919050565b60006020820190508181036000830152610d6f81610ba4565b9050919050565b60006020820190508181036000830152610d8f81610bc7565b9050919050565b60006020820190508181036000830152610daf81610bea565b9050919050565b60006020820190508181036000830152610dcf81610c0d565b9050919050565b60006020820190508181036000830152610def81610c30565b9050919050565b6000602082019050610e0b6000830184610c76565b92915050565b6000604082019050610e266000830185610c76565b610e336020830184610c76565b9392505050565b600081519050919050565b600081905092915050565b600082825260208201905092915050565b6000610e6c82610f07565b9150610e7783610f07565b9250827fffffffffffffffffffffffffffffffffffffffffffffffffffffffffffffffff03821115610eac57610eab610f76565b5b828201905092915050565b6000610ec282610ee7565b9050919050565b6000610ed482610ee7565b9050919050565b60008115159050919050565b600073ffffffffffffffffffffffffffffffffffffffff82169050919050565b6000819050919050565b60005b83811015610f2f578082015181840152602081019050610f14565b83811115610f3e576000848401525b50505050565b60006002820490506001821680610f5c57607f821691505b60208210811415610f7057610f6f610fa5565b5b50919050565b7f4e487b7100000000000000000000000000000000000000000000000000000000600052601160045260246000fd5b7f4e487b7100000000000000000000000000000000000000000000000000000000600052602260045260246000fd5b6000601f19601f8301169050919050565b7f41756374696f6e20616c726561647920656e6465642e00000000000000000000600082015250565b7f546865726520616c7265616479206973206120686967686572206269642e0000600082015250565b7f41756374696f6e206e6f742079657420656e6465642e00000000000000000000600082015250565b7f61756374696f6e456e642068617320616c7265616479206265656e2063616c6c60008201527f65642e0000000000000000000000000000000000000000000000000000000000602082015250565b7f5472616e7366657220746f2073656c6c6572206661696c65642e000000000000600082015250565b7f4e6f2066756e647320746f2077697468647261772e0000000000000000000000600082015250565b50565b61110d81610eb7565b811461111857600080fd5b5056fea2646970667358221220c6014072b3cdf7dd8e00606615b9a49a4c6ef36d3474393df80060386fb946f464736f6c63430008010033",
  "linkReferences": {},
  "deployedLinkReferences": {}
}