{
  "_format": "hh-sol-artifact-1",
  "contractName": "AuctionFactory",
  "sourceName": "contracts/AuctionFactory.sol",
  "abi": [
    {
      "anonymous": false,
      "inputs": [
        {
          "indexed": false,
          "internalType": "address",
          "name": "auctionAddress",
          "type": "address"
        },
        {
          "indexed": false,
          "internalType": "address",
          "name": "seller",
          "type": "address"
        }
      ],
      "name": "AuctionCreated",
      "type": "event"
    },
    {
      "inputs": [
        {
          "internalType": "uint256",
          "name": "",
          "type": "uint256"
        }
      ],
      "name": "auctions",
      "outputs": [
        {
          "internalType": "contract Auction",
          "name": "",
          "type": "address"
        }
      ],
      "stateMutability": "view",
      "type": "function"
    },
    {
      "inputs": [
        {
          "internalType": "uint256",
          "name": "_biddingTime",
          "type": "uint256"
        },
        {
          "internalType": "string",
          "name": "_itemName",
          "type": "string"
        },
        {
          "internalType": "string",
          "name": "_itemDescription",
          "type": "string"
        }
      ],
      "name": "createAuction",
      "outputs": [],
      "stateMutability": "nonpayable",
      "type": "function"
    },
    {
      "inputs": [],
      "name": "getAuctions",
      "outputs": [
        {
          "internalType": "contract Auction[]",
          "name": "",
          "type": "address[]"
        }
      ],
      "stateMutability": "view",
      "type": "function"
    }
  ],
  "bytecode": "0x608060405234801561001057600080fd5b50611c5b806100206000396000f3fe60806040523480156200001157600080fd5b5060043610620000465760003560e01c80631bf15f9f146200004b578063571a26a0146200006b578063d7c0691914620000a1575b600080fd5b6200006960048036038101906200006391906200033d565b620000c3565b005b62000089600480360381019062000083919062000311565b620001aa565b60405162000098919062000530565b60405180910390f35b620000ab620001ea565b604051620000ba91906200050c565b60405180910390f35b600083338484604051620000d7906200027a565b620000e694939291906200054d565b604051809103906000f08015801562000103573d6000803e3d6000fd5b5090506000819080600181540180825580915050600190039060005260206000200160009091909190916101000a81548173ffffffffffffffffffffffffffffffffffffffff021916908373ffffffffffffffffffffffffffffffffffffffff1602179055507f0bdb7849ed0b0249d0f995067a2ca77769f68ab4c654931e262676effeb395f281336040516200019c929190620004df565b60405180910390a150505050565b60008181548110620001bb57600080fd5b906000526020600020016000915054906101000a900473ffffffffffffffffffffffffffffffffffffffff1681565b606060008054806020026020016040519081016040528092919081815260200182805480156200027057602002820191906000526020600020905b8160009054906101000a900473ffffffffffffffffffffffffffffffffffffffff1673ffffffffffffffffffffffffffffffffffffffff168152602001906001019080831162000225575b5050505050905090565b61147a80620007ac83390190565b60006200029f6200029984620005d1565b620005a8565b905082815260208101848484011115620002b857600080fd5b620002c5848285620006d6565b509392505050565b600082601f830112620002df57600080fd5b8135620002f184826020860162000288565b91505092915050565b6000813590506200030b8162000791565b92915050565b6000602082840312156200032457600080fd5b60006200033484828501620002fa565b91505092915050565b6000806000606084860312156200035357600080fd5b60006200036386828701620002fa565b935050602084013567ffffffffffffffff8111156200038157600080fd5b6200038f86828701620002cd565b925050604084013567ffffffffffffffff811115620003ad57600080fd5b620003bb86828701620002cd565b9150509250925092565b6000620003d383836200046b565b60208301905092915050565b620003ea8162000670565b82525050565b620003fb816200065c565b82525050565b60006200040e8262000617565b6200041a81856200063a565b9350620004278362000607565b8060005b838110156200045e578151620004428882620003c5565b97506200044f836200062d565b9250506001810190506200042b565b5085935050505092915050565b6200047681620006ae565b82525050565b6200048781620006ae565b82525050565b60006200049a8262000622565b620004a681856200064b565b9350620004b8818560208601620006e5565b620004c38162000780565b840191505092915050565b620004d981620006a4565b82525050565b6000604082019050620004f66000830185620003f0565b620005056020830184620003f0565b9392505050565b6000602082019050818103600083015262000528818462000401565b905092915050565b60006020820190506200054760008301846200047c565b92915050565b6000608082019050620005646000830187620004ce565b620005736020830186620003df565b81810360408301526200058781856200048d565b905081810360608301526200059d81846200048d565b905095945050505050565b6000620005b4620005c7565b9050620005c282826200071b565b919050565b6000604051905090565b600067ffffffffffffffff821115620005ef57620005ee62000751565b5b620005fa8262000780565b9050602081019050919050565b6000819050602082019050919050565b600081519050919050565b600081519050919050565b6000602082019050919050565b600082825260208201905092915050565b600082825260208201905092915050565b6000620006698262000684565b9050919050565b60006200067d8262000684565b9050919050565b600073ffffffffffffffffffffffffffffffffffffffff82169050919050565b6000819050919050565b6000620006bb82620006c2565b9050919050565b6000620006cf8262000684565b9050919050565b82818337600083830152505050565b60005b8381101562000705578082015181840152602081019050620006e8565b8381111562000715576000848401525b50505050565b620007268262000780565b810181811067ffffffffffffffff8211171562000748576200074762000751565b5b80604052505050565b7f4e487b7100000000000000000000000000000000000000000000000000000000600052604160045260246000fd5b6000601f19601f8301169050919050565b6200079c81620006a4565b8114620007a857600080fd5b5056fe60806040523480156200001157600080fd5b506040516200147a3803806200147a833981810160405281019062000037919062000217565b826000806101000a81548173ffffffffffffffffffffffffffffffffffffffff021916908373ffffffffffffffffffffffffffffffffffffffff160217905550834262000085919062000314565b6001819055508160069080519060200190620000a3929190620000c7565b508060079080519060200190620000bc929190620000c7565b505050505062000523565b828054620000d590620003e5565b90600052602060002090601f016020900481019282620000f9576000855562000145565b82601f106200011457805160ff191683800117855562000145565b8280016001018555821562000145579182015b828111156200014457825182559160200191906001019062000127565b5b50905062000154919062000158565b5090565b5b808211156200017357600081600090555060010162000159565b5090565b60006200018e6200018884620002de565b620002b5565b905082815260208101848484011115620001a757600080fd5b620001b4848285620003af565b509392505050565b600081519050620001cd81620004ef565b92915050565b600082601f830112620001e557600080fd5b8151620001f784826020860162000177565b91505092915050565b600081519050620002118162000509565b92915050565b600080600080608085870312156200022e57600080fd5b60006200023e8782880162000200565b94505060206200025187828801620001bc565b935050604085015167ffffffffffffffff8111156200026f57600080fd5b6200027d87828801620001d3565b925050606085015167ffffffffffffffff8111156200029b57600080fd5b620002a987828801620001d3565b91505092959194509250565b6000620002c1620002d4565b9050620002cf82826200041b565b919050565b6000604051905090565b600067ffffffffffffffff821115620002fc57620002fb620004af565b5b6200030782620004de565b9050602081019050919050565b60006200032182620003a5565b91506200032e83620003a5565b9250827fffffffffffffffffffffffffffffffffffffffffffffffffffffffffffffffff0382111562000366576200036562000451565b5b828201905092915050565b60006200037e8262000385565b9050919050565b600073ffffffffffffffffffffffffffffffffffffffff82169050919050565b6000819050919050565b60005b83811015620003cf578082015181840152602081019050620003b2565b83811115620003df576000848401525b50505050565b60006002820490506001821680620003fe57607f821691505b6020821081141562000415576200041462000480565b5b50919050565b6200042682620004de565b810181811067ffffffffffffffff82111715620004485762000447620004af565b5b80604052505050565b7f4e487b7100000000000000000000000000000000000000000000000000000000600052601160045260246000fd5b7f4e487b7100000000000000000000000000000000000000000000000000000000600052602260045260246000fd5b7f4e487b7100000000000000000000000000000000000000000000000000000000600052604160045260246000fd5b6000601f19601f8301169050919050565b620004fa8162000371565b81146200050657600080fd5b50565b6200051481620003a5565b81146200052057600080fd5b50565b610f4780620005336000396000f3fe60806040526004361061009c5760003560e01c80633ccfd60b116100645780633ccfd60b1461015557806340401fea146101805780634b449cba146101ab57806391f90157146101d65780639f36522614610201578063d57bde791461022c5761009c565b806308551a53146100a157806312fa6feb146100cc5780631998aeef146100f757806326b387bb146101015780632a24f46c1461013e575b600080fd5b3480156100ad57600080fd5b506100b6610257565b6040516100c39190610afd565b60405180910390f35b3480156100d857600080fd5b506100e161027b565b6040516100ee9190610b18565b60405180910390f35b6100ff61028e565b005b34801561010d57600080fd5b506101286004803603810190610123919061093a565b610434565b6040516101359190610c15565b60405180910390f35b34801561014a57600080fd5b5061015361044c565b005b34801561016157600080fd5b5061016a610640565b6040516101779190610b18565b60405180910390f35b34801561018c57600080fd5b506101956107d7565b6040516101a29190610b33565b60405180910390f35b3480156101b757600080fd5b506101c0610865565b6040516101cd9190610c15565b60405180910390f35b3480156101e257600080fd5b506101eb61086b565b6040516101f89190610ae2565b60405180910390f35b34801561020d57600080fd5b50610216610891565b6040516102239190610b33565b60405180910390f35b34801561023857600080fd5b5061024161091f565b60405161024e9190610c15565b60405180910390f35b60008054906101000a900473ffffffffffffffffffffffffffffffffffffffff1681565b600560009054906101000a900460ff1681565b6001544211156102d3576040517f08c379a00000000000000000000000000000000000000000000000000000000081526004016102ca90610b55565b60405180910390fd5b6003543411610317576040517f08c379a000000000000000000000000000000000000000000000000000000000815260040161030e90610b75565b60405180910390fd5b60006003541461039c5760035460046000600260009054906101000a900473ffffffffffffffffffffffffffffffffffffffff1673ffffffffffffffffffffffffffffffffffffffff1673ffffffffffffffffffffffffffffffffffffffff16815260200190815260200160002060008282546103949190610c57565b925050819055505b33600260006101000a81548173ffffffffffffffffffffffffffffffffffffffff021916908373ffffffffffffffffffffffffffffffffffffffff160217905550346003819055503373ffffffffffffffffffffffffffffffffffffffff167ff4757a49b326036464bec6fe419a4ae38c8a02ce3e68bf0809674f6aab8ad3003460405161042a9190610c15565b60405180910390a2565b60046020528060005260406000206000915090505481565b600154421015610491576040517f08c379a000000000000000000000000000000000000000000000000000000000815260040161048890610b95565b60405180910390fd5b600560009054906101000a900460ff16156104e1576040517f08c379a00000000000000000000000000000000000000000000000000000000081526004016104d890610bb5565b60405180910390fd5b6001600560006101000a81548160ff021916908315150217905550600260009054906101000a900473ffffffffffffffffffffffffffffffffffffffff1673ffffffffffffffffffffffffffffffffffffffff167fdaec4582d5d9595688c8c98545fdd1c696d41c6aeaeb636737e84ed2f5c00eda6003546040516105669190610c15565b60405180910390a260008060009054906101000a900473ffffffffffffffffffffffffffffffffffffffff1673ffffffffffffffffffffffffffffffffffffffff166003546040516105b790610acd565b60006040518083038185875af1925050503d80600081146105f4576040519150601f19603f3d011682016040523d82523d6000602084013e6105f9565b606091505b505090508061063d576040517f08c379a000000000000000000000000000000000000000000000000000000000815260040161063490610bd5565b60405180910390fd5b50565b600080600460003373ffffffffffffffffffffffffffffffffffffffff1673ffffffffffffffffffffffffffffffffffffffff168152602001908152602001600020549050600081116106c8576040517f08c379a00000000000000000000000000000000000000000000000000000000081526004016106bf90610bf5565b60405180910390fd5b6000600460003373ffffffffffffffffffffffffffffffffffffffff1673ffffffffffffffffffffffffffffffffffffffff1681526020019081526020016000208190555060003373ffffffffffffffffffffffffffffffffffffffff168260405161073390610acd565b60006040518083038185875af1925050503d8060008114610770576040519150601f19603f3d011682016040523d82523d6000602084013e610775565b606091505b50509050806107cd5781600460003373ffffffffffffffffffffffffffffffffffffffff1673ffffffffffffffffffffffffffffffffffffffff168152602001908152602001600020819055506000925050506107d4565b6001925050505b90565b600680546107e490610d3a565b80601f016020809104026020016040519081016040528092919081815260200182805461081090610d3a565b801561085d5780601f106108325761010080835404028352916020019161085d565b820191906000526020600020905b81548152906001019060200180831161084057829003601f168201915b505050505081565b60015481565b600260009054906101000a900473ffffffffffffffffffffffffffffffffffffffff1681565b6007805461089e90610d3a565b80601f01602080910402602001604051908101604052809291908181526020018280546108ca90610d3a565b80156109175780601f106108ec57610100808354040283529160200191610917565b820191906000526020600020905b8154815290600101906020018083116108fa57829003601f168201915b505050505081565b60035481565b60008135905061093481610efa565b92915050565b60006020828403121561094c57600080fd5b600061095a84828501610925565b91505092915050565b61096c81610cbf565b82525050565b61097b81610cad565b82525050565b61098a81610cd1565b82525050565b600061099b82610c30565b6109a58185610c46565b93506109b5818560208601610d07565b6109be81610dca565b840191505092915050565b60006109d6601683610c46565b91506109e182610ddb565b602082019050919050565b60006109f9601e83610c46565b9150610a0482610e04565b602082019050919050565b6000610a1c601683610c46565b9150610a2782610e2d565b602082019050919050565b6000610a3f602383610c46565b9150610a4a82610e56565b604082019050919050565b6000610a62601a83610c46565b9150610a6d82610ea5565b602082019050919050565b6000610a85601583610c46565b9150610a9082610ece565b602082019050919050565b6000610aa8600083610c3b565b9150610ab382610ef7565b600082019050919050565b610ac781610cfd565b82525050565b6000610ad882610a9b565b9150819050919050565b6000602082019050610af76000830184610972565b92915050565b6000602082019050610b126000830184610963565b92915050565b6000602082019050610b2d6000830184610981565b92915050565b60006020820190508181036000830152610b4d8184610990565b905092915050565b60006020820190508181036000830152610b6e816109c9565b9050919050565b60006020820190508181036000830152610b8e816109ec565b9050919050565b60006020820190508181036000830152610bae81610a0f565b9050919050565b60006020820190508181036000830152610bce81610a32565b9050919050565b60006020820190508181036000830152610bee81610a55565b9050919050565b60006020820190508181036000830152610c0e81610a78565b9050919050565b6000602082019050610c2a6000830184610abe565b92915050565b600081519050919050565b600081905092915050565b600082825260208201905092915050565b6000610c6282610cfd565b9150610c6d83610cfd565b9250827fffffffffffffffffffffffffffffffffffffffffffffffffffffffffffffffff03821115610ca257610ca1610d6c565b5b828201905092915050565b6000610cb882610cdd565b9050919050565b6000610cca82610cdd565b9050919050565b60008115159050919050565b600073ffffffffffffffffffffffffffffffffffffffff82169050919050565b6000819050919050565b60005b83811015610d25578082015181840152602081019050610d0a565b83811115610d34576000848401525b50505050565b60006002820490506001821680610d5257607f821691505b60208210811415610d6657610d65610d9b565b5b50919050565b7f4e487b7100000000000000000000000000000000000000000000000000000000600052601160045260246000fd5b7f4e487b7100000000000000000000000000000000000000000000000000000000600052602260045260246000fd5b6000601f19601f8301169050919050565b7f41756374696f6e20616c726561647920656e6465642e00000000000000000000600082015250565b7f546865726520616c7265616479206973206120686967686572206269642e0000600082015250565b7f41756374696f6e206e6f742079657420656e6465642e00000000000000000000600082015250565b7f61756374696f6e456e642068617320616c7265616479206265656e2063616c6c60008201527f65642e0000000000000000000000000000000000000000000000000000000000602082015250565b7f5472616e7366657220746f2073656c6c6572206661696c65642e000000000000600082015250565b7f4e6f2066756e647320746f2077697468647261772e0000000000000000000000600082015250565b50565b610f0381610cad565b8114610f0e57600080fd5b5056fea2646970667358221220643f0126693d3012f5e5f8909964ad158ac4e1e2128f09dbd512797f034fb96764736f6c63430008010033a2646970667358221220fd18cb91210067c88ca877273f893cf3bdecc7b667a83ac8c4e013b78633854a64736f6c63430008010033",
  "linkReferences": {},
  "deployedLinkReferences": {}
}