{
  "_format": "hh-sol-artifact-1",
  "contractName": "AuctionFactory",
  "sourceName": "contracts/AuctionFactory.sol",
  "abi": [
    {
      "anonymous": false,
      "inputs": [
        {
          "indexed": false,
          "internalType": "address",
          "name": "auctionAddress",
          "type": "address"
        },
        {
          "indexed": false,
          "internalType": "address",
          "name": "seller",
          "type": "address"
        }
      ],
      "name": "AuctionCreated",
      "type": "event"
    },
    {
      "inputs": [
        {
          "internalType": "uint256",
          "name": "",
          "type": "uint256"
        }
      ],
      "name": "auctions",
      "outputs": [
        {
          "internalType": "contract Auction",
          "name": "",
          "type": "address"
        }
      ],
      "stateMutability": "view",
      "type": "function"
    },
    {
      "inputs": [
        {
          "internalType": "uint256",
          "name": "_biddingTime",
          "type": "uint256"
        },
        {
          "internalType": "string",
          "name": "_itemName",
          "type": "string"
        },
        {
          "internalType": "string",
          "name": "_itemDescription",
          "type": "string"
        }
      ],
      "name": "createAuction",
      "outputs": [],
      "stateMutability": "nonpayable",
      "type": "function"
    },
    {
      "inputs": [],
      "name": "getAuctions",
      "outputs": [
        {
          "internalType": "contract Auction[]",
          "name": "",
          "type": "address[]"
        }
      ],
      "stateMutability": "view",
      "type": "function"
    }
  ],
  "bytecode": "0x608060405234801561001057600080fd5b50611a62806100206000396000f3fe60806040523480156200001157600080fd5b5060043610620000465760003560e01c80631bf15f9f146200004b578063571a26a0146200006b578063d7c0691914620000a1575b600080fd5b6200006960048036038101906200006391906200033d565b620000c3565b005b62000089600480360381019062000083919062000311565b620001aa565b60405162000098919062000530565b60405180910390f35b620000ab620001ea565b604051620000ba91906200050c565b60405180910390f35b600083338484604051620000d7906200027a565b620000e694939291906200054d565b604051809103906000f08015801562000103573d6000803e3d6000fd5b5090506000819080600181540180825580915050600190039060005260206000200160009091909190916101000a81548173ffffffffffffffffffffffffffffffffffffffff021916908373ffffffffffffffffffffffffffffffffffffffff1602179055507f0bdb7849ed0b0249d0f995067a2ca77769f68ab4c654931e262676effeb395f281336040516200019c929190620004df565b60405180910390a150505050565b60008181548110620001bb57600080fd5b906000526020600020016000915054906101000a900473ffffffffffffffffffffffffffffffffffffffff1681565b606060008054806020026020016040519081016040528092919081815260200182805480156200027057602002820191906000526020600020905b8160009054906101000a900473ffffffffffffffffffffffffffffffffffffffff1673ffffffffffffffffffffffffffffffffffffffff168152602001906001019080831162000225575b5050505050905090565b61128180620007ac83390190565b60006200029f6200029984620005d1565b620005a8565b905082815260208101848484011115620002b857600080fd5b620002c5848285620006d6565b509392505050565b600082601f830112620002df57600080fd5b8135620002f184826020860162000288565b91505092915050565b6000813590506200030b8162000791565b92915050565b6000602082840312156200032457600080fd5b60006200033484828501620002fa565b91505092915050565b6000806000606084860312156200035357600080fd5b60006200036386828701620002fa565b935050602084013567ffffffffffffffff8111156200038157600080fd5b6200038f86828701620002cd565b925050604084013567ffffffffffffffff811115620003ad57600080fd5b620003bb86828701620002cd565b9150509250925092565b6000620003d383836200046b565b60208301905092915050565b620003ea8162000670565b82525050565b620003fb816200065c565b82525050565b60006200040e8262000617565b6200041a81856200063a565b9350620004278362000607565b8060005b838110156200045e578151620004428882620003c5565b97506200044f836200062d565b9250506001810190506200042b565b5085935050505092915050565b6200047681620006ae565b82525050565b6200048781620006ae565b82525050565b60006200049a8262000622565b620004a681856200064b565b9350620004b8818560208601620006e5565b620004c38162000780565b840191505092915050565b620004d981620006a4565b82525050565b6000604082019050620004f66000830185620003f0565b620005056020830184620003f0565b9392505050565b6000602082019050818103600083015262000528818462000401565b905092915050565b60006020820190506200054760008301846200047c565b92915050565b6000608082019050620005646000830187620004ce565b620005736020830186620003df565b81810360408301526200058781856200048d565b905081810360608301526200059d81846200048d565b905095945050505050565b6000620005b4620005c7565b9050620005c282826200071b565b919050565b6000604051905090565b600067ffffffffffffffff821115620005ef57620005ee62000751565b5b620005fa8262000780565b9050602081019050919050565b6000819050602082019050919050565b600081519050919050565b600081519050919050565b6000602082019050919050565b600082825260208201905092915050565b600082825260208201905092915050565b6000620006698262000684565b9050919050565b60006200067d8262000684565b9050919050565b600073ffffffffffffffffffffffffffffffffffffffff82169050919050565b6000819050919050565b6000620006bb82620006c2565b9050919050565b6000620006cf8262000684565b9050919050565b82818337600083830152505050565b60005b8381101562000705578082015181840152602081019050620006e8565b8381111562000715576000848401525b50505050565b620007268262000780565b810181811067ffffffffffffffff8211171562000748576200074762000751565b5b80604052505050565b7f4e487b7100000000000000000000000000000000000000000000000000000000600052604160045260246000fd5b6000601f19601f8301169050919050565b6200079c81620006a4565b8114620007a857600080fd5b5056fe60806040523480156200001157600080fd5b506040516200128138038062001281833981810160405281019062000037919062000217565b826000806101000a81548173ffffffffffffffffffffffffffffffffffffffff021916908373ffffffffffffffffffffffffffffffffffffffff160217905550834262000085919062000314565b6001819055508160069080519060200190620000a3929190620000c7565b508060079080519060200190620000bc929190620000c7565b505050505062000523565b828054620000d590620003e5565b90600052602060002090601f016020900481019282620000f9576000855562000145565b82601f106200011457805160ff191683800117855562000145565b8280016001018555821562000145579182015b828111156200014457825182559160200191906001019062000127565b5b50905062000154919062000158565b5090565b5b808211156200017357600081600090555060010162000159565b5090565b60006200018e6200018884620002de565b620002b5565b905082815260208101848484011115620001a757600080fd5b620001b4848285620003af565b509392505050565b600081519050620001cd81620004ef565b92915050565b600082601f830112620001e557600080fd5b8151620001f784826020860162000177565b91505092915050565b600081519050620002118162000509565b92915050565b600080600080608085870312156200022e57600080fd5b60006200023e8782880162000200565b94505060206200025187828801620001bc565b935050604085015167ffffffffffffffff8111156200026f57600080fd5b6200027d87828801620001d3565b925050606085015167ffffffffffffffff8111156200029b57600080fd5b620002a987828801620001d3565b91505092959194509250565b6000620002c1620002d4565b9050620002cf82826200041b565b919050565b6000604051905090565b600067ffffffffffffffff821115620002fc57620002fb620004af565b5b6200030782620004de565b9050602081019050919050565b60006200032182620003a5565b91506200032e83620003a5565b9250827fffffffffffffffffffffffffffffffffffffffffffffffffffffffffffffffff0382111562000366576200036562000451565b5b828201905092915050565b60006200037e8262000385565b9050919050565b600073ffffffffffffffffffffffffffffffffffffffff82169050919050565b6000819050919050565b60005b83811015620003cf578082015181840152602081019050620003b2565b83811115620003df576000848401525b50505050565b60006002820490506001821680620003fe57607f821691505b6020821081141562000415576200041462000480565b5b50919050565b6200042682620004de565b810181811067ffffffffffffffff82111715620004485762000447620004af565b5b80604052505050565b7f4e487b7100000000000000000000000000000000000000000000000000000000600052601160045260246000fd5b7f4e487b7100000000000000000000000000000000000000000000000000000000600052602260045260246000fd5b7f4e487b7100000000000000000000000000000000000000000000000000000000600052604160045260246000fd5b6000601f19601f8301169050919050565b620004fa8162000371565b81146200050657600080fd5b50565b6200051481620003a5565b81146200052057600080fd5b50565b610d4e80620005336000396000f3fe60806040526004361061009c5760003560e01c80633ccfd60b116100645780633ccfd60b1461015557806340401fea146101805780634b449cba146101ab57806391f90157146101d65780639f36522614610201578063d57bde791461022c5761009c565b806308551a53146100a157806312fa6feb146100cc5780631998aeef146100f757806326b387bb146101015780632a24f46c1461013e575b600080fd5b3480156100ad57600080fd5b506100b6610257565b6040516100c3919061097b565b60405180910390f35b3480156100d857600080fd5b506100e161027b565b6040516100ee91906109bf565b60405180910390f35b6100ff61028e565b005b34801561010d57600080fd5b5061012860048036038101906101239190610836565b61041f565b6040516101359190610a7c565b60405180910390f35b34801561014a57600080fd5b50610153610437565b005b34801561016157600080fd5b5061016a6105af565b60405161017791906109bf565b60405180910390f35b34801561018c57600080fd5b506101956106d3565b6040516101a291906109da565b60405180910390f35b3480156101b757600080fd5b506101c0610761565b6040516101cd9190610a7c565b60405180910390f35b3480156101e257600080fd5b506101eb610767565b6040516101f89190610960565b60405180910390f35b34801561020d57600080fd5b5061021661078d565b60405161022391906109da565b60405180910390f35b34801561023857600080fd5b5061024161081b565b60405161024e9190610a7c565b60405180910390f35b60008054906101000a900473ffffffffffffffffffffffffffffffffffffffff1681565b600560009054906101000a900460ff1681565b6001544211156102d3576040517f08c379a00000000000000000000000000000000000000000000000000000000081526004016102ca906109fc565b60405180910390fd5b6003543411610317576040517f08c379a000000000000000000000000000000000000000000000000000000000815260040161030e90610a1c565b60405180910390fd5b60006003541461039c5760035460046000600260009054906101000a900473ffffffffffffffffffffffffffffffffffffffff1673ffffffffffffffffffffffffffffffffffffffff1673ffffffffffffffffffffffffffffffffffffffff16815260200190815260200160002060008282546103949190610ab3565b925050819055505b33600260006101000a81548173ffffffffffffffffffffffffffffffffffffffff021916908373ffffffffffffffffffffffffffffffffffffffff160217905550346003819055507ff4757a49b326036464bec6fe419a4ae38c8a02ce3e68bf0809674f6aab8ad3003334604051610415929190610996565b60405180910390a1565b60046020528060005260406000206000915090505481565b600560009054906101000a900460ff1615610487576040517f08c379a000000000000000000000000000000000000000000000000000000000815260040161047e90610a5c565b60405180910390fd5b6001544210156104cc576040517f08c379a00000000000000000000000000000000000000000000000000000000081526004016104c390610a3c565b60405180910390fd5b6001600560006101000a81548160ff0219169083151502179055507fdaec4582d5d9595688c8c98545fdd1c696d41c6aeaeb636737e84ed2f5c00eda600260009054906101000a900473ffffffffffffffffffffffffffffffffffffffff1660035460405161053c929190610996565b60405180910390a160008054906101000a900473ffffffffffffffffffffffffffffffffffffffff1673ffffffffffffffffffffffffffffffffffffffff166108fc6003549081150290604051600060405180830381858888f193505050501580156105ac573d6000803e3d6000fd5b50565b600080600460003373ffffffffffffffffffffffffffffffffffffffff1673ffffffffffffffffffffffffffffffffffffffff16815260200190815260200160002054905060008111156106ca576000600460003373ffffffffffffffffffffffffffffffffffffffff1673ffffffffffffffffffffffffffffffffffffffff168152602001908152602001600020819055503373ffffffffffffffffffffffffffffffffffffffff166108fc829081150290604051600060405180830381858888f193505050506106c95780600460003373ffffffffffffffffffffffffffffffffffffffff1673ffffffffffffffffffffffffffffffffffffffff1681526020019081526020016000208190555060009150506106d0565b5b60019150505b90565b600680546106e090610b96565b80601f016020809104026020016040519081016040528092919081815260200182805461070c90610b96565b80156107595780601f1061072e57610100808354040283529160200191610759565b820191906000526020600020905b81548152906001019060200180831161073c57829003601f168201915b505050505081565b60015481565b600260009054906101000a900473ffffffffffffffffffffffffffffffffffffffff1681565b6007805461079a90610b96565b80601f01602080910402602001604051908101604052809291908181526020018280546107c690610b96565b80156108135780601f106107e857610100808354040283529160200191610813565b820191906000526020600020905b8154815290600101906020018083116107f657829003601f168201915b505050505081565b60035481565b60008135905061083081610d01565b92915050565b60006020828403121561084857600080fd5b600061085684828501610821565b91505092915050565b61086881610b1b565b82525050565b61087781610b09565b82525050565b61088681610b2d565b82525050565b600061089782610a97565b6108a18185610aa2565b93506108b1818560208601610b63565b6108ba81610c26565b840191505092915050565b60006108d2601683610aa2565b91506108dd82610c37565b602082019050919050565b60006108f5601e83610aa2565b915061090082610c60565b602082019050919050565b6000610918601683610aa2565b915061092382610c89565b602082019050919050565b600061093b602383610aa2565b915061094682610cb2565b604082019050919050565b61095a81610b59565b82525050565b6000602082019050610975600083018461086e565b92915050565b6000602082019050610990600083018461085f565b92915050565b60006040820190506109ab600083018561086e565b6109b86020830184610951565b9392505050565b60006020820190506109d4600083018461087d565b92915050565b600060208201905081810360008301526109f4818461088c565b905092915050565b60006020820190508181036000830152610a15816108c5565b9050919050565b60006020820190508181036000830152610a35816108e8565b9050919050565b60006020820190508181036000830152610a558161090b565b9050919050565b60006020820190508181036000830152610a758161092e565b9050919050565b6000602082019050610a916000830184610951565b92915050565b600081519050919050565b600082825260208201905092915050565b6000610abe82610b59565b9150610ac983610b59565b9250827fffffffffffffffffffffffffffffffffffffffffffffffffffffffffffffffff03821115610afe57610afd610bc8565b5b828201905092915050565b6000610b1482610b39565b9050919050565b6000610b2682610b39565b9050919050565b60008115159050919050565b600073ffffffffffffffffffffffffffffffffffffffff82169050919050565b6000819050919050565b60005b83811015610b81578082015181840152602081019050610b66565b83811115610b90576000848401525b50505050565b60006002820490506001821680610bae57607f821691505b60208210811415610bc257610bc1610bf7565b5b50919050565b7f4e487b7100000000000000000000000000000000000000000000000000000000600052601160045260246000fd5b7f4e487b7100000000000000000000000000000000000000000000000000000000600052602260045260246000fd5b6000601f19601f8301169050919050565b7f41756374696f6e20616c726561647920656e6465642e00000000000000000000600082015250565b7f546865726520616c7265616479206973206120686967686572206269642e0000600082015250565b7f41756374696f6e206e6f742079657420656e6465642e00000000000000000000600082015250565b7f61756374696f6e456e642068617320616c7265616479206265656e2063616c6c60008201527f65642e0000000000000000000000000000000000000000000000000000000000602082015250565b610d0a81610b09565b8114610d1557600080fd5b5056fea26469706673582212201204270b4c54fb5477ebbf43d5ae0387141afc2b1b79f47fbab27272d88f51b764736f6c63430008010033a26469706673582212207a11d2797274f87a913f739d19d648ed7ac36ad96052f30722553211b1cbf35c64736f6c63430008010033",
  "linkReferences": {},
  "deployedLinkReferences": {}
}